{
  "contractName": "Animalcare",
  "abi": [
    {
      "inputs": [],
      "stateMutability": "nonpayable",
      "type": "constructor"
    },
    {
      "inputs": [],
      "name": "picHash",
      "outputs": [
        {
          "internalType": "string",
          "name": "",
          "type": "string"
        }
      ],
      "stateMutability": "view",
      "type": "function",
      "constant": true
    },
    {
      "stateMutability": "payable",
      "type": "receive",
      "payable": true
    },
    {
      "inputs": [
        {
          "internalType": "string",
          "name": "_imageHash",
          "type": "string"
        }
      ],
      "name": "setImage",
      "outputs": [],
      "stateMutability": "nonpayable",
      "type": "function"
    },
    {
      "inputs": [],
      "name": "getImage",
      "outputs": [
        {
          "internalType": "string",
          "name": "",
          "type": "string"
        }
      ],
      "stateMutability": "view",
      "type": "function",
      "constant": true
    },
    {
      "inputs": [
        {
          "internalType": "string",
          "name": "_data",
          "type": "string"
        }
      ],
      "name": "createShed",
      "outputs": [],
      "stateMutability": "nonpayable",
      "type": "function"
    },
    {
      "inputs": [
        {
          "internalType": "address",
          "name": "_doctor",
          "type": "address"
        },
        {
          "internalType": "uint256",
          "name": "_shedno",
          "type": "uint256"
        },
        {
          "internalType": "string",
          "name": "_imageHash",
          "type": "string"
        }
      ],
      "name": "createAnimal",
      "outputs": [],
      "stateMutability": "nonpayable",
      "type": "function"
    },
    {
      "inputs": [
        {
          "internalType": "uint256",
          "name": "_animalHash",
          "type": "uint256"
        },
        {
          "internalType": "string",
          "name": "_healthRecord",
          "type": "string"
        }
      ],
      "name": "updateAnimalHealth",
      "outputs": [],
      "stateMutability": "nonpayable",
      "type": "function"
    },
    {
      "inputs": [
        {
          "internalType": "uint256",
          "name": "_animalHash",
          "type": "uint256"
        }
      ],
      "name": "createDonation",
      "outputs": [],
      "stateMutability": "payable",
      "type": "function",
      "payable": true
    },
    {
      "inputs": [
        {
          "internalType": "uint256",
          "name": "_animalHash",
          "type": "uint256"
        },
        {
          "internalType": "address",
          "name": "_doc",
          "type": "address"
        }
      ],
      "name": "updateData",
      "outputs": [],
      "stateMutability": "nonpayable",
      "type": "function"
    },
    {
      "inputs": [
        {
          "internalType": "uint256",
          "name": "_animalHash",
          "type": "uint256"
        },
        {
          "internalType": "uint256",
          "name": "_newShed",
          "type": "uint256"
        }
      ],
      "name": "changeShed",
      "outputs": [],
      "stateMutability": "nonpayable",
      "type": "function"
    },
    {
      "inputs": [
        {
          "internalType": "uint256",
          "name": "_badShed",
          "type": "uint256"
        }
      ],
      "name": "blacklistShed",
      "outputs": [],
      "stateMutability": "nonpayable",
      "type": "function"
    },
    {
      "inputs": [
        {
          "internalType": "uint256",
          "name": "_proveShed",
          "type": "uint256"
        }
      ],
      "name": "unblockShed",
      "outputs": [],
      "stateMutability": "nonpayable",
      "type": "function"
    },
    {
      "inputs": [
        {
          "internalType": "uint256",
          "name": "_animalHash",
          "type": "uint256"
        }
      ],
      "name": "getData",
      "outputs": [
        {
          "internalType": "string",
          "name": "",
          "type": "string"
        },
        {
          "internalType": "string",
          "name": "",
          "type": "string"
        },
        {
          "internalType": "uint256",
          "name": "",
          "type": "uint256"
        }
      ],
      "stateMutability": "view",
      "type": "function",
      "constant": true
    }
  ],
  "bytecode": "0x6080604052662386f26fc1000060005534801561001b57600080fd5b5033600160006101000a81548173ffffffffffffffffffffffffffffffffffffffff021916908373ffffffffffffffffffffffffffffffffffffffff16021790555061169a8061006c6000396000f3fe6080604052600436106100ab5760003560e01c806369452a961161006457806369452a96146101c557806371adb5e6146101ee5780639d80f02614610217578063f3651cbb14610240578063f51f26331461026b578063f56eeb5a14610287576100b2565b80630178fe3f146100b75780633e4942a3146100f65780634a9c0b591461011f57806356dbca2b1461014857806357b8d60314610171578063647ae6d61461019a576100b2565b366100b257005b600080fd5b3480156100c357600080fd5b506100de60048036038101906100d99190610f12565b6102b0565b6040516100ed93929190611143565b60405180910390f35b34801561010257600080fd5b5061011d60048036038101906101189190610f12565b61057e565b005b34801561012b57600080fd5b5061014660048036038101906101419190610e6a565b61063d565b005b34801561015457600080fd5b5061016f600480360381019061016a9190610ed1565b6106d7565b005b34801561017d57600080fd5b5061019860048036038101906101939190610f12565b61071c565b005b3480156101a657600080fd5b506101af6107db565b6040516101bc9190611121565b60405180910390f35b3480156101d157600080fd5b506101ec60048036038101906101e79190610f3b565b610869565b005b3480156101fa57600080fd5b5061021560048036038101906102109190610ed1565b61096a565b005b34801561022357600080fd5b5061023e60048036038101906102399190610fcb565b610984565b005b34801561024c57600080fd5b50610255610aef565b6040516102629190611121565b60405180910390f35b61028560048036038101906102809190610f12565b610b81565b005b34801561029357600080fd5b506102ae60048036038101906102a99190610f77565b610d09565b005b606080600083600073ffffffffffffffffffffffffffffffffffffffff166005600083815260200190815260200160002060010160009054906101000a900473ffffffffffffffffffffffffffffffffffffffff1673ffffffffffffffffffffffffffffffffffffffff16141561035c576040517f08c379a0000000000000000000000000000000000000000000000000000000008152600401610353906111e8565b60405180910390fd5b6000600560008781526020019081526020016000206040518060800160405290816000820160009054906101000a900473ffffffffffffffffffffffffffffffffffffffff1673ffffffffffffffffffffffffffffffffffffffff1673ffffffffffffffffffffffffffffffffffffffff1681526020016001820160009054906101000a900473ffffffffffffffffffffffffffffffffffffffff1673ffffffffffffffffffffffffffffffffffffffff1673ffffffffffffffffffffffffffffffffffffffff1681526020016002820154815260200160038201805461044290611338565b80601f016020809104026020016040519081016040528092919081815260200182805461046e90611338565b80156104bb5780601f10610490576101008083540402835291602001916104bb565b820191906000526020600020905b81548152906001019060200180831161049e57829003601f168201915b505050505081525050905080606001516009600088815260200190815260200160002082604001518180546104ef90611338565b80601f016020809104026020016040519081016040528092919081815260200182805461051b90611338565b80156105685780601f1061053d57610100808354040283529160200191610568565b820191906000526020600020905b81548152906001019060200180831161054b57829003601f168201915b5050505050915094509450945050509193909250565b600160009054906101000a900473ffffffffffffffffffffffffffffffffffffffff1673ffffffffffffffffffffffffffffffffffffffff163373ffffffffffffffffffffffffffffffffffffffff161461060e576040517f08c379a000000000000000000000000000000000000000000000000000000000815260040161060590611188565b60405180910390fd5b60006007600083815260200190815260200160002060006101000a81548160ff02191690831515021790555050565b600a60008154809291906106509061139b565b919050555061065e8161096a565b600060405180608001604052808573ffffffffffffffffffffffffffffffffffffffff168152602001600160009054906101000a900473ffffffffffffffffffffffffffffffffffffffff1673ffffffffffffffffffffffffffffffffffffffff16815260200184815260200183815250905050505050565b600b60008154809291906106ea9061139b565b91905055508060086000600b5481526020019081526020016000209080519060200190610718929190610d35565b5050565b600160009054906101000a900473ffffffffffffffffffffffffffffffffffffffff1673ffffffffffffffffffffffffffffffffffffffff163373ffffffffffffffffffffffffffffffffffffffff16146107ac576040517f08c379a00000000000000000000000000000000000000000000000000000000081526004016107a390611208565b60405180910390fd5b60016007600083815260200190815260200160002060006101000a81548160ff02191690831515021790555050565b600480546107e890611338565b80601f016020809104026020016040519081016040528092919081815260200182805461081490611338565b80156108615780601f1061083657610100808354040283529160200191610861565b820191906000526020600020905b81548152906001019060200180831161084457829003601f168201915b505050505081565b81600073ffffffffffffffffffffffffffffffffffffffff166005600083815260200190815260200160002060010160009054906101000a900473ffffffffffffffffffffffffffffffffffffffff1673ffffffffffffffffffffffffffffffffffffffff161415610910576040517f08c379a0000000000000000000000000000000000000000000000000000000008152600401610907906111e8565b60405180910390fd5b816005600085815260200190815260200160002060000160006101000a81548173ffffffffffffffffffffffffffffffffffffffff021916908373ffffffffffffffffffffffffffffffffffffffff160217905550505050565b8060049080519060200190610980929190610d35565b5050565b81600073ffffffffffffffffffffffffffffffffffffffff166005600083815260200190815260200160002060010160009054906101000a900473ffffffffffffffffffffffffffffffffffffffff1673ffffffffffffffffffffffffffffffffffffffff161415610a2b576040517f08c379a0000000000000000000000000000000000000000000000000000000008152600401610a22906111e8565b60405180910390fd5b6005600084815260200190815260200160002060010160009054906101000a900473ffffffffffffffffffffffffffffffffffffffff1673ffffffffffffffffffffffffffffffffffffffff163373ffffffffffffffffffffffffffffffffffffffff1614610acf576040517f08c379a0000000000000000000000000000000000000000000000000000000008152600401610ac6906111a8565b60405180910390fd5b816005600085815260200190815260200160002060020181905550505050565b606060048054610afe90611338565b80601f0160208091040260200160405190810160405280929190818152602001828054610b2a90611338565b8015610b775780601f10610b4c57610100808354040283529160200191610b77565b820191906000526020600020905b815481529060010190602001808311610b5a57829003601f168201915b5050505050905090565b6000543414610bc5576040517f08c379a0000000000000000000000000000000000000000000000000000000008152600401610bbc90611228565b60405180910390fd5b600073ffffffffffffffffffffffffffffffffffffffff166005600083815260200190815260200160002060010160009054906101000a900473ffffffffffffffffffffffffffffffffffffffff1673ffffffffffffffffffffffffffffffffffffffff1614610c6a576040517f08c379a0000000000000000000000000000000000000000000000000000000008152600401610c61906111c8565b60405180910390fd5b3073ffffffffffffffffffffffffffffffffffffffff166108fc349081150290604051600060405180830381858888f19350505050158015610cb0573d6000803e3d6000fd5b50336005600083815260200190815260200160002060010160006101000a81548173ffffffffffffffffffffffffffffffffffffffff021916908373ffffffffffffffffffffffffffffffffffffffff16021790555050565b80600960008481526020019081526020016000209080519060200190610d30929190610d35565b505050565b828054610d4190611338565b90600052602060002090601f016020900481019282610d635760008555610daa565b82601f10610d7c57805160ff1916838001178555610daa565b82800160010185558215610daa579182015b82811115610da9578251825591602001919060010190610d8e565b5b509050610db79190610dbb565b5090565b5b80821115610dd4576000816000905550600101610dbc565b5090565b6000610deb610de68461126d565b611248565b905082815260208101848484011115610e0357600080fd5b610e0e8482856112f6565b509392505050565b600081359050610e2581611636565b92915050565b600082601f830112610e3c57600080fd5b8135610e4c848260208601610dd8565b91505092915050565b600081359050610e648161164d565b92915050565b600080600060608486031215610e7f57600080fd5b6000610e8d86828701610e16565b9350506020610e9e86828701610e55565b925050604084013567ffffffffffffffff811115610ebb57600080fd5b610ec786828701610e2b565b9150509250925092565b600060208284031215610ee357600080fd5b600082013567ffffffffffffffff811115610efd57600080fd5b610f0984828501610e2b565b91505092915050565b600060208284031215610f2457600080fd5b6000610f3284828501610e55565b91505092915050565b60008060408385031215610f4e57600080fd5b6000610f5c85828601610e55565b9250506020610f6d85828601610e16565b9150509250929050565b60008060408385031215610f8a57600080fd5b6000610f9885828601610e55565b925050602083013567ffffffffffffffff811115610fb557600080fd5b610fc185828601610e2b565b9150509250929050565b60008060408385031215610fde57600080fd5b6000610fec85828601610e55565b9250506020610ffd85828601610e55565b9150509250929050565b60006110128261129e565b61101c81856112a9565b935061102c818560208601611305565b61103581611471565b840191505092915050565b600061104d6025836112a9565b915061105882611482565b604082019050919050565b60006110706028836112a9565b915061107b826114d1565b604082019050919050565b60006110936029836112a9565b915061109e82611520565b604082019050919050565b60006110b66029836112a9565b91506110c18261156f565b604082019050919050565b60006110d96027836112a9565b91506110e4826115be565b604082019050919050565b60006110fc6012836112a9565b91506111078261160d565b602082019050919050565b61111b816112ec565b82525050565b6000602082019050818103600083015261113b8184611007565b905092915050565b6000606082019050818103600083015261115d8186611007565b905081810360208301526111718185611007565b90506111806040830184611112565b949350505050565b600060208201905081810360008301526111a181611040565b9050919050565b600060208201905081810360008301526111c181611063565b9050919050565b600060208201905081810360008301526111e181611086565b9050919050565b60006020820190508181036000830152611201816110a9565b9050919050565b60006020820190508181036000830152611221816110cc565b9050919050565b60006020820190508181036000830152611241816110ef565b9050919050565b6000611252611263565b905061125e828261136a565b919050565b6000604051905090565b600067ffffffffffffffff82111561128857611287611442565b5b61129182611471565b9050602081019050919050565b600081519050919050565b600082825260208201905092915050565b60006112c5826112cc565b9050919050565b600073ffffffffffffffffffffffffffffffffffffffff82169050919050565b6000819050919050565b82818337600083830152505050565b60005b83811015611323578082015181840152602081019050611308565b83811115611332576000848401525b50505050565b6000600282049050600182168061135057607f821691505b6020821081141561136457611363611413565b5b50919050565b61137382611471565b810181811067ffffffffffffffff8211171561139257611391611442565b5b80604052505050565b60006113a6826112ec565b91507fffffffffffffffffffffffffffffffffffffffffffffffffffffffffffffffff8214156113d9576113d86113e4565b5b600182019050919050565b7f4e487b7100000000000000000000000000000000000000000000000000000000600052601160045260246000fd5b7f4e487b7100000000000000000000000000000000000000000000000000000000600052602260045260246000fd5b7f4e487b7100000000000000000000000000000000000000000000000000000000600052604160045260246000fd5b6000601f19601f8301169050919050565b7f6f6e6c7920746865206f776e65722063616e20756e626c6f636b20612070726f60008201527f7669646572000000000000000000000000000000000000000000000000000000602082015250565b7f6f6e6c792074686520646f6e61746f722063616e206368616e6765207468652060008201527f70726f7669646572000000000000000000000000000000000000000000000000602082015250565b7f616e696d616c20776974682074686520676976656e206861736820616c72656160008201527f6479206578697374730000000000000000000000000000000000000000000000602082015250565b7f616e696d616c20776974682074686520676976656e206861736820646f65732060008201527f6e6f742065786973740000000000000000000000000000000000000000000000602082015250565b7f6f6e6c7920746865206f776e65722063616e20626c61636b6c6973742061207060008201527f726f766964657200000000000000000000000000000000000000000000000000602082015250565b7f696e636f72726563742066656520706169640000000000000000000000000000600082015250565b61163f816112ba565b811461164a57600080fd5b50565b611656816112ec565b811461166157600080fd5b5056fea26469706673582212203a918cd998d32fd62b5085d971027733f58f05526dba65031d5baeff809c48c564736f6c63430008040033",
  "immutableReferences": {},
  "source": "// SPDX-License-Identifier: MIT\r\npragma solidity ^0.8.4;\r\n\r\ncontract Animalcare  {\r\n    // 0.01 eth for creating a request for donation\r\n    uint CREATE_Donation = 1e16;\r\n    address donor;\r\n    address animal_feedSupply;\r\n    address geoTagteam;\r\n\r\n string public picHash;    \r\n\r\n    function setImage(string memory _imageHash) public {\r\n        picHash = _imageHash;\r\n    }\r\n    \r\n    function getImage() public view returns(string memory){\r\n        return picHash;\r\n    }\r\n\r\n    struct Animals {\r\n        address doctor;\r\n        address donator; // creator - vetenary (Doctor)\r\n        uint shedno;\r\n        string picHash;\r\n    }\r\n    \r\n\r\n    mapping(uint => Animals) _animals;\r\n    mapping(address => address) _animal_shed; // check mapping based on the whole logic\r\n    mapping(uint => bool) _blacklist; // animal shed lisitngs\r\n    mapping(uint => string) shedDetails;\r\n    mapping(uint => string) health;\r\n\r\n    constructor() {\r\n        donor = msg.sender;\r\n    }\r\n\r\n    modifier animalExists(uint _animalHash) {\r\n        require(_animals[_animalHash].donator != address(0), 'animal with the given hash does not exist');\r\n        _;\r\n    } \r\n   \r\n    uint animalHash;\r\n    \r\n    uint shedno;\r\nfunction createShed(string memory _data) public{\r\n    shedno ++;\r\n    shedDetails[shedno] = _data;\r\n}\r\nfunction createAnimal(address _doctor, uint _shedno, string memory _imageHash) public {\r\n    animalHash ++;\r\n    setImage(_imageHash);\r\n    Animals memory animals = Animals({\r\n        doctor:_doctor,\r\n        donator:donor,\r\n        shedno:_shedno,\r\n        picHash:_imageHash\r\n    });\r\n    \r\n     \r\n} \r\n\r\nfunction updateAnimalHealth(uint _animalHash, string memory _healthRecord) public {\r\n    health[_animalHash] = _healthRecord;\r\n}\r\n\r\n    function createDonation(uint _animalHash) public payable {\r\n        require(msg.value == CREATE_Donation, 'incorrect fee paid');\r\n        require(_animals[_animalHash].donator == address(0), 'animal with the given hash already exists');\r\n        payable (address(this)).transfer(msg.value);\r\n        _animals[_animalHash].donator = msg.sender;\r\n       \r\n    }\r\n\r\n    function updateData(uint _animalHash, address _doc) public animalExists(_animalHash) {\r\n        _animals[_animalHash].doctor = _doc;\r\n    } \r\n\r\n    //auditing the facility\r\n    function changeShed(uint _animalHash, uint _newShed) public animalExists(_animalHash) {\r\n        require(msg.sender == _animals[_animalHash].donator, 'only the donator can change the provider');\r\n       _animals[_animalHash].shedno = _newShed;\r\n    }\r\n\r\n    function blacklistShed(uint _badShed) public {\r\n        require(msg.sender == donor, 'only the owner can blacklist a provider');\r\n        _blacklist[_badShed] = true;\r\n    }\r\n\r\n    function unblockShed(uint _proveShed) public {\r\n        require(msg.sender == donor, 'only the owner can unblock a provider');\r\n        _blacklist[_proveShed] = false;\r\n    }\r\n\r\n    function getData(uint _animalHash) public view animalExists(_animalHash) returns(string memory,string memory, uint) {\r\n        Animals memory currentProduct = _animals[_animalHash];\r\n        return (currentProduct.picHash, health[_animalHash], currentProduct.shedno);\r\n    } \r\n    receive()external payable{}\r\n    // should display ipfs stored data and pictures via hash - check with sir! picHash,healthrecord,shed details\r\n}\r\n\r\n",
  "sourcePath": "C:/Users/Rushang/Desktop/DApp_final/contract/contracts/wild.sol",
  "compiler": {
    "name": "solc",
    "version": "0.8.4+commit.c7e474f2.Emscripten.clang"
  },
  "schemaVersion": "3.4.1",
  "updatedAt": "2021-08-20T14:05:42.388Z",
  "networkType": "ethereum",
  "devdoc": {
    "kind": "dev",
    "methods": {},
    "version": 1
  },
  "userdoc": {
    "kind": "user",
    "methods": {},
    "version": 1
  }
}